{
  "_format": "hh-sol-artifact-1",
  "contractName": "Crowdfunding",
  "sourceName": "contracts/CrownFunding.sol",
  "abi": [
    {
      "inputs": [
        {
          "internalType": "uint256",
          "name": "",
          "type": "uint256"
        }
      ],
      "name": "campaigns",
      "outputs": [
        {
          "internalType": "address",
          "name": "owner",
          "type": "address"
        },
        {
          "internalType": "string",
          "name": "title",
          "type": "string"
        },
        {
          "internalType": "string",
          "name": "description",
          "type": "string"
        },
        {
          "internalType": "uint256",
          "name": "goal",
          "type": "uint256"
        },
        {
          "internalType": "uint256",
          "name": "deadline",
          "type": "uint256"
        },
        {
          "internalType": "uint256",
          "name": "fundsRaised",
          "type": "uint256"
        }
      ],
      "stateMutability": "view",
      "type": "function"
    },
    {
      "inputs": [
        {
          "internalType": "string",
          "name": "_title",
          "type": "string"
        },
        {
          "internalType": "string",
          "name": "_description",
          "type": "string"
        },
        {
          "internalType": "uint256",
          "name": "_goal",
          "type": "uint256"
        },
        {
          "internalType": "uint256",
          "name": "_deadline",
          "type": "uint256"
        }
      ],
      "name": "createCampaign",
      "outputs": [],
      "stateMutability": "nonpayable",
      "type": "function"
    },
    {
      "inputs": [
        {
          "internalType": "uint256",
          "name": "_index",
          "type": "uint256"
        }
      ],
      "name": "donate",
      "outputs": [],
      "stateMutability": "payable",
      "type": "function"
    },
    {
      "inputs": [],
      "name": "getCampaigns",
      "outputs": [
        {
          "components": [
            {
              "internalType": "address",
              "name": "owner",
              "type": "address"
            },
            {
              "internalType": "string",
              "name": "title",
              "type": "string"
            },
            {
              "internalType": "string",
              "name": "description",
              "type": "string"
            },
            {
              "internalType": "uint256",
              "name": "goal",
              "type": "uint256"
            },
            {
              "internalType": "uint256",
              "name": "deadline",
              "type": "uint256"
            },
            {
              "internalType": "uint256",
              "name": "fundsRaised",
              "type": "uint256"
            }
          ],
          "internalType": "struct Crowdfunding.Campaign[]",
          "name": "",
          "type": "tuple[]"
        }
      ],
      "stateMutability": "view",
      "type": "function"
    },
    {
      "inputs": [
        {
          "internalType": "uint256",
          "name": "_index",
          "type": "uint256"
        }
      ],
      "name": "withdrawFunds",
      "outputs": [],
      "stateMutability": "nonpayable",
      "type": "function"
    }
  ],
  "bytecode": "0x6080604052348015600f57600080fd5b506112b28061001f6000396000f3fe60806040526004361061004a5760003560e01c8063141961bc1461004f578063155dd5ee14610091578063a318f269146100ba578063a6b03633146100e3578063f14faf6f1461010e575b600080fd5b34801561005b57600080fd5b5061007660048036038101906100719190610830565b61012a565b6040516100889695949392919061093d565b60405180910390f35b34801561009d57600080fd5b506100b860048036038101906100b39190610830565b6102a6565b005b3480156100c657600080fd5b506100e160048036038101906100dc9190610ae1565b61041b565b005b3480156100ef57600080fd5b506100f8610565565b6040516101059190610d3a565b60405180910390f35b61012860048036038101906101239190610830565b61075c565b005b6000818154811061013a57600080fd5b90600052602060002090600602016000915090508060000160009054906101000a900473ffffffffffffffffffffffffffffffffffffffff169080600101805461018390610d8b565b80601f01602080910402602001604051908101604052809291908181526020018280546101af90610d8b565b80156101fc5780601f106101d1576101008083540402835291602001916101fc565b820191906000526020600020905b8154815290600101906020018083116101df57829003601f168201915b50505050509080600201805461021190610d8b565b80601f016020809104026020016040519081016040528092919081815260200182805461023d90610d8b565b801561028a5780601f1061025f5761010080835404028352916020019161028a565b820191906000526020600020905b81548152906001019060200180831161026d57829003601f168201915b5050505050908060030154908060040154908060050154905086565b60008082815481106102bb576102ba610dbc565b5b906000526020600020906006020190508060000160009054906101000a900473ffffffffffffffffffffffffffffffffffffffff1673ffffffffffffffffffffffffffffffffffffffff163373ffffffffffffffffffffffffffffffffffffffff161461035d576040517f08c379a000000000000000000000000000000000000000000000000000000000815260040161035490610e37565b60405180910390fd5b8060030154816005015410156103a8576040517f08c379a000000000000000000000000000000000000000000000000000000000815260040161039f90610ea3565b60405180910390fd5b8060000160009054906101000a900473ffffffffffffffffffffffffffffffffffffffff1673ffffffffffffffffffffffffffffffffffffffff166108fc82600501549081150290604051600060405180830381858888f19350505050158015610416573d6000803e3d6000fd5b505050565b42811161045d576040517f08c379a000000000000000000000000000000000000000000000000000000000815260040161045490610f0f565b60405180910390fd5b60006040518060c001604052803373ffffffffffffffffffffffffffffffffffffffff1681526020018681526020018581526020018481526020018381526020016000815250908060018154018082558091505060019003906000526020600020906006020160009091909190915060008201518160000160006101000a81548173ffffffffffffffffffffffffffffffffffffffff021916908373ffffffffffffffffffffffffffffffffffffffff160217905550602082015181600101908161052891906110db565b50604082015181600201908161053e91906110db565b50606082015181600301556080820151816004015560a08201518160050155505050505050565b60606000805480602002602001604051908101604052809291908181526020016000905b8282101561075357838290600052602060002090600602016040518060c00160405290816000820160009054906101000a900473ffffffffffffffffffffffffffffffffffffffff1673ffffffffffffffffffffffffffffffffffffffff1673ffffffffffffffffffffffffffffffffffffffff16815260200160018201805461061290610d8b565b80601f016020809104026020016040519081016040528092919081815260200182805461063e90610d8b565b801561068b5780601f106106605761010080835404028352916020019161068b565b820191906000526020600020905b81548152906001019060200180831161066e57829003601f168201915b505050505081526020016002820180546106a490610d8b565b80601f01602080910402602001604051908101604052809291908181526020018280546106d090610d8b565b801561071d5780601f106106f25761010080835404028352916020019161071d565b820191906000526020600020905b81548152906001019060200180831161070057829003601f168201915b50505050508152602001600382015481526020016004820154815260200160058201548152505081526020019060010190610589565b50505050905090565b600080828154811061077157610770610dbc565b5b90600052602060002090600602019050806004015442106107c7576040517f08c379a00000000000000000000000000000000000000000000000000000000081526004016107be906111f9565b60405180910390fd5b348160050160008282546107db9190611248565b925050819055505050565b6000604051905090565b600080fd5b600080fd5b6000819050919050565b61080d816107fa565b811461081857600080fd5b50565b60008135905061082a81610804565b92915050565b600060208284031215610846576108456107f0565b5b60006108548482850161081b565b91505092915050565b600073ffffffffffffffffffffffffffffffffffffffff82169050919050565b60006108888261085d565b9050919050565b6108988161087d565b82525050565b600081519050919050565b600082825260208201905092915050565b60005b838110156108d85780820151818401526020810190506108bd565b60008484015250505050565b6000601f19601f8301169050919050565b60006109008261089e565b61090a81856108a9565b935061091a8185602086016108ba565b610923816108e4565b840191505092915050565b610937816107fa565b82525050565b600060c082019050610952600083018961088f565b818103602083015261096481886108f5565b9050818103604083015261097881876108f5565b9050610987606083018661092e565b610994608083018561092e565b6109a160a083018461092e565b979650505050505050565b600080fd5b600080fd5b7f4e487b7100000000000000000000000000000000000000000000000000000000600052604160045260246000fd5b6109ee826108e4565b810181811067ffffffffffffffff82111715610a0d57610a0c6109b6565b5b80604052505050565b6000610a206107e6565b9050610a2c82826109e5565b919050565b600067ffffffffffffffff821115610a4c57610a4b6109b6565b5b610a55826108e4565b9050602081019050919050565b82818337600083830152505050565b6000610a84610a7f84610a31565b610a16565b905082815260208101848484011115610aa057610a9f6109b1565b5b610aab848285610a62565b509392505050565b600082601f830112610ac857610ac76109ac565b5b8135610ad8848260208601610a71565b91505092915050565b60008060008060808587031215610afb57610afa6107f0565b5b600085013567ffffffffffffffff811115610b1957610b186107f5565b5b610b2587828801610ab3565b945050602085013567ffffffffffffffff811115610b4657610b456107f5565b5b610b5287828801610ab3565b9350506040610b638782880161081b565b9250506060610b748782880161081b565b91505092959194509250565b600081519050919050565b600082825260208201905092915050565b6000819050602082019050919050565b610bb58161087d565b82525050565b600082825260208201905092915050565b6000610bd78261089e565b610be18185610bbb565b9350610bf18185602086016108ba565b610bfa816108e4565b840191505092915050565b610c0e816107fa565b82525050565b600060c083016000830151610c2c6000860182610bac565b5060208301518482036020860152610c448282610bcc565b91505060408301518482036040860152610c5e8282610bcc565b9150506060830151610c736060860182610c05565b506080830151610c866080860182610c05565b5060a0830151610c9960a0860182610c05565b508091505092915050565b6000610cb08383610c14565b905092915050565b6000602082019050919050565b6000610cd082610b80565b610cda8185610b8b565b935083602082028501610cec85610b9c565b8060005b85811015610d285784840389528151610d098582610ca4565b9450610d1483610cb8565b925060208a01995050600181019050610cf0565b50829750879550505050505092915050565b60006020820190508181036000830152610d548184610cc5565b905092915050565b7f4e487b7100000000000000000000000000000000000000000000000000000000600052602260045260246000fd5b60006002820490506001821680610da357607f821691505b602082108103610db657610db5610d5c565b5b50919050565b7f4e487b7100000000000000000000000000000000000000000000000000000000600052603260045260246000fd5b7f4e6f742063616d706169676e206f776e65720000000000000000000000000000600082015250565b6000610e216012836108a9565b9150610e2c82610deb565b602082019050919050565b60006020820190508181036000830152610e5081610e14565b9050919050565b7f476f616c206e6f74207265616368656400000000000000000000000000000000600082015250565b6000610e8d6010836108a9565b9150610e9882610e57565b602082019050919050565b60006020820190508181036000830152610ebc81610e80565b9050919050565b7f496e76616c696420646561646c696e6500000000000000000000000000000000600082015250565b6000610ef96010836108a9565b9150610f0482610ec3565b602082019050919050565b60006020820190508181036000830152610f2881610eec565b9050919050565b60008190508160005260206000209050919050565b60006020601f8301049050919050565b600082821b905092915050565b600060088302610f917fffffffffffffffffffffffffffffffffffffffffffffffffffffffffffffffff82610f54565b610f9b8683610f54565b95508019841693508086168417925050509392505050565b6000819050919050565b6000610fd8610fd3610fce846107fa565b610fb3565b6107fa565b9050919050565b6000819050919050565b610ff283610fbd565b611006610ffe82610fdf565b848454610f61565b825550505050565b600090565b61101b61100e565b611026818484610fe9565b505050565b5b8181101561104a5761103f600082611013565b60018101905061102c565b5050565b601f82111561108f5761106081610f2f565b61106984610f44565b81016020851015611078578190505b61108c61108485610f44565b83018261102b565b50505b505050565b600082821c905092915050565b60006110b260001984600802611094565b1980831691505092915050565b60006110cb83836110a1565b9150826002028217905092915050565b6110e48261089e565b67ffffffffffffffff8111156110fd576110fc6109b6565b5b6111078254610d8b565b61111282828561104e565b600060209050601f8311600181146111455760008415611133578287015190505b61113d85826110bf565b8655506111a5565b601f19841661115386610f2f565b60005b8281101561117b57848901518255600182019150602085019450602081019050611156565b868310156111985784890151611194601f8916826110a1565b8355505b6001600288020188555050505b505050505050565b7f43616d706169676e20656e646564000000000000000000000000000000000000600082015250565b60006111e3600e836108a9565b91506111ee826111ad565b602082019050919050565b60006020820190508181036000830152611212816111d6565b9050919050565b7f4e487b7100000000000000000000000000000000000000000000000000000000600052601160045260246000fd5b6000611253826107fa565b915061125e836107fa565b925082820190508082111561127657611275611219565b5b9291505056fea2646970667358221220e4d1b4d43df141b21293e0b6ee5740ce6d3571c6212de45b9f8ae8193684e76a64736f6c634300081c0033",
  "linkReferences": {},
  "deployedLinkReferences": {}
}